:1000000002008AE5836003E49322A882E622E58366
:100010006004E4938003A882E6F822E5836004E4A8
:10002000938003A882E6F922E5836004E4938003C9
:10003000A882E6FA22E5836004E4938003A882E6BE
:10004000FB22E5836004E4938003A882E6FC22E5BA
:10005000836004E4938003A882E6FD22E5836004C4
:10006000E4938003A882E6FE22E5836004E49380A3
:1000700003A882E6FF22E4F5D075812778207A076D
:0D008000F608DAFC1201050200000200760D
:10010000616C6F6B00802B758DFD75985075892023
:10011000D28E75A00075800075B0001201347C018C
:100120007D0012021B7C017D001201E5120182801C
:10013000FE2280D3802075800075A0007D381201DA
:10014000587D0E1201587D011201587D061201588A
:100150007D801201582280DE80138D80C2A1C2A250
:10016000D2A0C2A08D201201821202562280EB8002
:100170000F85E080D2A1C2A2D2A0C2A01202562254
:1001800080EF805FE4F523F524E52424EAE5236489
:1001900080347F5002800280028047E4F525F526F6
:1001A000E526240BE5256480347E5002800280021F
:1001B00080180526E52670020525E526240BE52591
:1001C0006480347E5002800280E80524E5247002B9
:1001D0000523E52424EAE5236480347F500280026D
:1001E00080B922809F80327520008C218D2280185A
:1001F000E5202522F582E43521F583120003F5E0A0
:1002000012016F1201820520E5202522F582E435D6
:1002100021F58312000370D82280CC80377520002E
:100220008C218D22801DE5202522F582E43521F5E3
:1002300083120003F5998000309902800280F9C290
:10024000990520E5202522F582E43521F583120069
:100250000370D32280C78016D287D2A0C2A1D2A2B7
:100260008004C2A0D2A0208702800280F52280E80C
:00000001FF
