:10000000020096801875A000C28475A0FFD28412E9
:10001000001F75A000C28412001F80EE2280E680BF
:100020005FE4F520F521E52124E7E5206480347FB5
:100030005002800280028047E4F522F523E5232464
:100040000BE5226480347E50028002800280180515
:1000500023E52370020522E523240BE52264803486
:100060007E5002800280E80521E52170020520E52E
:100070002124E7E5206480347F5002800280B92289
:10008000809FE4F5D0758124F520F521F522F52334
:09009000120003020000020082CC
:00000001FF
